:020000040800F2
:1000000020AB002001750108AD6F0108AF6F01083A
:10001000B16F0108B36F0108B56F0108000000005F
:100020000000000000000000000000005DE7000884
:10003000B76F01080000000001E7000817CE0008B4
:100040002176010825760108297601082D76010818
:100050003176010835760108397601083D760108C8
:100060004176010845760108497601084D76010878
:100070005176010855760108597601085D76010828
:100080006176010865760108697601086D760108D8
:100090007176010875760108797601087D76010888
:1000A0008176010885760108897601088D76010838
:1000B0009176010895760108997601089D760108E8
:1000C000A1760108A5760108A9760108AD76010898
:1000D000B1760108B5760108B9760108BD76010848
:1000E000C1760108C5760108C9760108CD760108F8
:1000F000D1760108D5760108D9760108DD760108A8
:10010000E1760108E5760108E9760108ED76010857
:10011000F1760108F5760108B96F0108F976010852
:10012000FD760108017701080577010809770108C4
:100130000D77010811770108157701081977010873
:100140001D7701082177010825770108BF6F010895
:10015000297701082D7701083177010835770108E3
:10016000397701083D770108417701084577010893
:10017000497701084D770108517701080000000018
:1001800055770108597701085D7701086177010803
:1001900065770108697701086D77010871770108B3
:1001A000C56F010875770108CB6F010879770108E1
:1001B0007D77010881770108857701088977010833
:1001C0008D7701089177010800F5E070026891428F
:1001D00003D343681A44914202D380680028F5D1C2
:1001E0007047DFF86C17086890B94FF4805048608A
:1001F0004FF480324FF0FF30C86008610420DFF810
:1002000054378A604861C3F8BC01DFF84C070860C6
:100210000120704701F1080313F0070F0EBF002300
:10022000C3F1080303F007031944D21A8161C260C5
:1002300042F001034B60091D4FF0280C41F802C049
:10024000DFF80C271369C36170472DE9FC4B0746A3
:1002500001F1080010F0070F0FBF8946C0F1080038
:1002600000F0070001EB000902F1080111F0070F8F
:1002700006D002F10800C0F1080000F007000244B7
:100280001546A5EB090009EB0306A0EB030B43F0B1
:100290000303C9F80430AE4228BF01F005FA2879FB
:1002A000C10758BF01F000FABBF1100F38BF01F0D1
:1002B000FBF9B869854208D1F9688B44C7F80CB0DE
:1002C000BE614BF00100706051E1786985420AD14E
:1002D000B9688B44C7F808B07E614BF001007060CC
:1002E00046F80BB043E1686800F00301012940F0D3
:1002F000AC80C008C0000190C0081F2839D8AC6885
:10030000D5F80C800090454508BF01F0CDF9A54215
:1003100008BF01F0C9F968680099C008C000B0EBD7
:10032000C10F18BF01F0C0F9009907F1280000EBD8
:10033000C100844206D039698C42C0F08180E268F5
:10034000AA427DD1A04506D1009839680123834097
:100350009943396076E0804506D0396988456FD386
:10036000D8F80800A8426BD1C4F80C80C8F808403F
:1003700068E0EC68D5F81880AC420CD0A868396900
:10038000884223D3C268AA4204BFA168A9421DD1F2
:10039000C460A0601CE005F114010C6834B905F1DB
:1003A00010010C68A4B101E011460C6804F11402BC
:1003B0001068002802BF04F1100210680028F3D171
:1003C0003869814202D300220A6001E001F06CF931
:1003D000B8F1000F36D0E96907F5987000EB81009D
:1003E0000268954208D10460A4B9E86979680122DD
:1003F00082409143796025E03869804508D3D8F878
:100400001010A94214BFC8F81440C8F8104001E009
:1004100001F04AF9B4B139698C4211D3C4F818809B
:10042000286928B1884226BF2061846101F03CF927
:10043000686938B13969884202D36061846101E03A
:1004400001F032F901996D188B4469684908490037
:1004500069604BF0010070604FEADB0446F80BB0B6
:100460001F2C23D807F1280000EBC4084546BBF138
:10047000100F38BF01F018F9386820FA04F1CA07E4
:1004800005D4012101FA04F404433C6007E0D8F8E4
:100490000800396988422CBF054601F005F9C8F803
:1004A0000860EE60B560C6F80C8060E05FEA1B2073
:1004B00008BF002123D0B0F5803F28BF1F211ED2E6
:1004C000A0F58072120C02F008029040A0F5805155
:1004D000090C01F004018840A0F580431B0CC2F117
:1004E0000E0203F00203521AD21A984002EBD032E5
:1004F000D01D2BFA00F101F0010101EB4201F16185
:10050000002307F59872736102EB810033617A680A
:1005100022FA01F3DC0707D4012303FA01F11143A6
:1005200079600660B0611DE002681F291DBF49089F
:10053000C1F119010BFA01F1594600E00246506879
:10054000C008C000584516D002F11003C80F03EBD5
:100550008003490018680028F0D13869834204D329
:100560001E60B261F660B66001E001F09DF809F12D
:100570000800BDE8F68B396990688A4228BF884236
:10058000F3D3C6609660B060F2600020B061EEE721
:100590002DE9FE4F04468B46A5692E4690469946A6
:1005A0003146FFF711FE0268416802EB010AAAF129
:1005B000270111F007000EBF0021C1F1080101F071
:1005C00007010AEB0100A0F12F0706F110018F428D
:1005D00038BF374607F11802002101920091A8F1B7
:1005E000280259462046FFF715FE07F1080010F0D3
:1005F000070F18BF01F058F81B20786007F10801B9
:1006000004F5E07090E80C5081E80C50C0F800B0A0
:10061000C0F80480C0F80C9081600722019800990E
:1006200000E0001D491C00F1080353454260F8D367
:100630000129D8BF01F038F8B74200F09580BF1B00
:10064000301D321DC15949084900D15147F0010000
:1006500070604FEAD70BF751BBF11F0F21D804EBA5
:10066000CB0000F12805A846102F38BF01F01CF878
:10067000206820FA0BF1CA0705D4012101FA0BF119
:100680000843206006E0A868216988422CBF8046A4
:1006900001F00AF8AE60C8F80C60C6F80880F56092
:1006A0006FE0380A08BF002123D0B0F5803F28BF93
:1006B0001F211ED2A0F58072120C02F00802904099
:1006C000A0F58051090C01F004018840A0F5804399
:1006D0001B0CC2F10E0203F00203521AD21A984008
:1006E00002EBD032D01D27FA00F101F0010101EB3D
:1006F000420104EB8102002302F59870F1617361FD
:100700003361626822FA01F3DB0707D4012303FA9D
:1007100001F1114361600660B0611DE002681F29AC
:100720001DBF4908C1F1190107FA01F1394600E07E
:1007300002465068C008C000B84216D002F110034B
:10074000C80F03EB8003490018680028F0D1206926
:10075000834204D31E60B261F660B56011E003B05D
:10076000BDE8F04F00F0A0BF0BE0216990688A421D
:1007700028BF8842F3D3C6609560B060F260002065
:10078000B06103B0BDE8F08F2DE9F041704F054630
:100790003868884608B9FFF724FDB96801EB0800FE
:1007A0002F30491E20EA010188457DD205F5D87613
:1007B000B06828B1326889188A4275D2884273D3EA
:1007C00000F0B2FF01001CBF0C6811F1010F6BD0EB
:1007D0003068201805F5D87230605368984238BFE9
:1007E00018467060A86960BB286908B1814200D2D0
:1007F0002961316174610020F0614FF0FF303A6887
:100800006A62286205F128020020D260926002F13B
:10081000080757611761801C10322028F5D34D4816
:10082000854208BFA4F1280228D055F8040CC0085E
:1008300005EBC002A2F108000A19121A283A014673
:100840001CE005F5E070024600E092687AB3136898
:1008500057681F44B942F8D1137B1F0727D4AB69EF
:100860001768BB4223D3D2F804C06744BB421ED2F0
:10087000A444C2F804C0E868A96922182846FFF712
:10088000C9FC1FE08068C0B103689342FAD1027BC3
:10089000130712D4026801604368E41844604346B9
:1008A0002846BDE8F041D0E40020BDE8F0812A6987
:1008B000914238BF29610A19E5E7002322462846FC
:1008C000FFF766FEE8688045EED2A0EB0800A96954
:1008D000E86001EB0802AA6140F00100506048F0B6
:1008E0000300486001F10800BDE8F08130B4184B06
:1008F0001A6882B94FF480525A604FF480344FF036
:10090000FF32DA601A610422124D9C605A61C5F808
:10091000BC21114A1A6011F1400F17D28269AAB1A5
:10092000C368283199420BD200F5E0710C68A242ED
:1009300003D34D682C44A24202D389680029F5D123
:10094000C16999423CBF4FF0FF32C26100F0A8BEBE
:1009500084A60020289E00206859883C2DE9F84F85
:1009600000258946090AC9F1000B08BF002323D0DE
:10097000B1F5803F28BF1F231ED2A1F58072120C53
:1009800002F008029140A1F580531B0C03F0040310
:100990009940A1F58044240CC2F10E0204F0020437
:1009A000D21A121BA14002EBD132D11D29FA01F358
:1009B00003F0010303EB4203074607F5987858F864
:1009C000230030B31F2B0FBF4C465C08C4F1190441
:1009D00009FA04F4AC46594600E064004268D208C3
:1009E000D200A2EB09028A4203D21100054600F0B0
:1009F0006981426910304FEAD47B50F82B00002AFD
:100A00001CBF824294460028E7D18B466046B0BBAB
:100A1000BDBB012202FA03F35B005842796803432D
:100A20000B4000F04E81584203405B1E180B00F053
:100A30001000C340590901F00801CB409A0802F0A8
:100A40000402D3405C0804F002040818E3401018C4
:100A5000C3F3400620183044F3401B1858F8230015
:100A60000DE008464168C908C900A1EB09015945D4
:100A70003CBF8B46054601690029F2D14069002838
:100A8000F0D1002D00F01D81B868A0EB090083456E
:100A900080F0178139698D42C0F011816868C00803
:100AA000C00009EB0B01884218BF00F0FDFD05EB0B
:100AB0000906B54280F00381EC68D5F818A0AC4275
:100AC0000CD0A8683969884223D3C268AA4204BFFF
:100AD000A168A9421DD1C460A0601CE005F1140109
:100AE0000C6834B905F110010C68A4B101E011469D
:100AF0000C6804F114021068002802BF04F110020F
:100B000010680028F3D13869814202D300220A60BC
:100B100001E000F0C9FDBAF1000F36D0E86908EB3A
:100B2000800001688D4209D10460200014D1E86979
:100B30007968012282409143796026E038698245D4
:100B400008D3DAF81010A94214BFCAF81440CAF842
:100B5000104001E000F0A8FDBCB13869844212D316
:100B6000C4F818A0286930B13969884226BF2061CD
:100B7000846100F099FD686938B13969884202D30F
:100B80006061846101E000F08FFDBBF1100F0CD2B9
:100B9000D94449F00300291D6860281D51F8092037
:100BA00042F0010240F8092088E049F00300686043
:100BB0004BF0010070604FEADB0046F80BB01F28D5
:100BC0001DD807EBC00101F12804396821FA00F2B1
:100BD000D307A34605D4012202FA00F00843386087
:100BE00006E0A068396988422CBF834600F05CFDAE
:100BF000A660CBF80C60C6F808B0F4605EE05FEA6F
:100C00001B2008BF002123D0B0F5803F28BF1F2143
:100C10001ED2A0F58072120C02F008029040A0F5DE
:100C20008051090C01F004018840A0F580431B0CA1
:100C3000C2F10E0203F00203521AD21A984002EBDC
:100C4000D032D01D2BFA00F101F0010101EB42017D
:100C5000F16100227261326108EB81007A6822FA48
:100C600001F4E30707D4012404FA01F11143796088
:100C70000660B0611DE002681F291DBF4908C1F16F
:100C800019010BFA01F1594600E002465068C0080C
:100C9000C000584518D002F11003C80F03EB8003C1
:100CA000490018680028F0D13869834204D31E60D7
:100CB000B261F660B66001E000F0F6FC14E100F00D
:100CC000F3FC0EE18B46A2E6396990688A4228BFA0
:100CD0008842F1D3C6609660B060F2600020B061D7
:100CE000ECE72DE9F84F0646884671684842014016
:100CF000491E080B00F01000C1404A0902F008022A
:100D0000D1408B0803F00403D9404D0805F00205DB
:100D10001018E9401818C1F34004281806F5987A0D
:100D20002044E14009185AF821104868C008C00062
:100D30000D46A0EB080909E001464868C008C0005C
:100D4000A0EB080048453CBF81460D4608690028D5
:100D5000F2D149690029F0D130698542C0F0BF80E5
:100D60006968C90808EB090BC900594518BF00F0AC
:100D70009BFC05EB08008542009080F0B080EF6896
:100D8000AC69AF420CD0A8683169884223D3C268ED
:100D9000AA4204BFB968A9421DD1C760B8601CE06F
:100DA00005F114010F6837B905F110010F68A7B1FB
:100DB00001E011460F6807F114021068002802BF15
:100DC00007F1100210680028F3D13069814202D384
:100DD00000220A6001E000F067FC002C31D0E869D5
:100DE0000AEB800001688D4208D107608FB9E8697D
:100DF0007168012282409143716022E0306984422F
:100E000005D32169A94214BF6761276101E000F0A1
:100E10004BFCB7B13069874211D3BC61286930B14E
:100E20003169884226BF3861876100F03DFC6869FE
:100E300038B13169884202D37861876101E000F0FE
:100E400033FCB9F1100F0BD24BF00300291D686081
:100E5000281D51F80B2042F0010240F80B203DE024
:100E600048F003012A1D696049F0010042F80800BA
:100E7000009941F80990D6F808804FEAD80BBBF1E9
:100E8000200F28BF00F010FCB8F1000F22D006EBB5
:100E9000CB00776900F12804A246B8F1100F38BFE3
:100EA00000F002FC306820FA0BF1CA0705D40121DA
:100EB00001FA0BF10843306006E0A068316988420E
:100EC0002CBF824600F0F0FBA760CAF80C70C7F890
:100ED00008A0FC60C6F808900098706104E000F07B
:100EE000E3FB0020BDE8F28F05F10800BDE8F28FBA
:100EF0002DE9FE4F0546AFF30080F52DDFF89C6726
:100F000080F004810B2D31BF10250B35ED08ED006D
:100F10003068EC08E04010F0030F46D0C04300F00A
:100F20000100041906F1280000EBC408E700D8F816
:100F300008506868C008C000B84218BF00F0B4FB91
:100F4000D5F80890454508BF00F0AEFB4D4508BFF9
:100F500000F0AAFB6868C008C000B84218BF00F0E3
:100F6000A3FBC84507D13068012101FA04F420EA47
:100F7000040434600DE03069814508D3D9F80C10C1
:100F8000A94204D1C8F80890C9F80C8001E000F02B
:100F90008BFB47F00300291D6860281DCA5942F0E9
:100FA0000102C25105F10804F8E0B168A94280F0DD
:100FB000BE80002800F0A1804FF0010808FA04F17B
:100FC000490000FA04F4484201430C4060420440E6
:100FD000641E200B00F01000C440610901F00801FC
:100FE000CC40A20802F00402D440630803F00203DC
:100FF0000818DC401018C4F3400718183818FC40D3
:10100000241806F1280000EBC40AE700DAF808907B
:10101000D9F80400C008C000B84218BF00F044FB73
:10102000D9F808B0D14508BF00F03EFBD94508BF4C
:1010300000F03AFBD9F80400C008C000B84218BF5D
:1010400000F032FBDA4506D1306808FA04F420EAF1
:10105000040434600DE031698B4508D3DBF80C00E3
:10106000484504D1CAF808B0CBF80CA001E000F064
:101070001BFB7F1B45F0030009F10402C9F80400C3
:1010800047F00101515109EB05020192D751B468B3
:101090004FEAD40ABAF1200F28BF00F005FB34B3A1
:1010A000CDF800A006F12800756900EBCA0AD34606
:1010B000102C38BF00F0F8FA3168009821FA00F2DD
:1010C000D30704D408FA00F00843306007E0DAF8E8
:1010D0000800316988422CBF834600F0E5FACAF85F
:1010E0000850CBF80C50C5F808B0C5F80CA0B76094
:1010F00009F108040198706150E07068C0B3294696
:101100003046FFF7EEFD040011D047E015F1400F27
:1011100028BF4FF0FF350AD20B35ED087068ED009F
:1011200028B129463046FFF719FC040036D1B068D3
:10113000A8421DD3411B726910290AD3501970614E
:10114000B16041F001034360415045F00305556033
:101150000BE00021B1607161131D40F0030151608B
:10116000111D1C5844F001040C5002F1080415E054
:10117000F06885420DD2401BB169F0604A19B26136
:1011800040F00100506045F003054D6001F1080496
:1011900004E029463046FFF7F7FA0446AFF3008033
:1011A0002046FFF7EEBA002800D170472DE9F0473E
:1011B000A0F10805AFF30080DFF8E06431698D42EB
:1011C000C0F05982686800F00302012A00F05382DF
:1011D000C2084FEAC209C20705EB090839D42C68D6
:1011E00010F0030F00F04982604205448D42A14493
:1011F000C0F041827069854200F0C680E408202C6E
:101200005ED2D5F80CA0AF68554508BF00F04CFA87
:10121000BD4208BF00F048FA6868C008C000B0EBE3
:10122000C40F18BF00F040FA06F1280000EBC4001C
:10123000874205D031698F423FD3FA68AA423CD138
:10124000BA452CD13068012101FA04F420EA0404E3
:101250003460454580F00F82D8F80440E00740F143
:101260000A82A10700F16881B069804540F09F8043
:10127000F168B5618944C6F80C9049F001006860D6
:1012800071698D4202D100207061B060F0694845FB
:1012900080F0F38100213046FFF728FBEDE1824525
:1012A00006D03069824508D3DAF80810A94204D183
:1012B000C7F80CA0CAF80870CBE700F0F5F9C8E74A
:1012C000EC68AF69AC420BD0A868884222D3C168F1
:1012D000A94204BFA268AA421CD1C460A0601BE05E
:1012E00005F11402146834B905F1100214689CB1B8
:1012F00001E01A46146804F114031868002802BFBC
:1013000004F1100318680028F3D18A4202D30021A7
:10131000116001E000F0C8F9002F9AD0E96906F5E4
:10132000987000EB81000268954209D104602000AA
:1013300011D1E8697168012282409143716088E7A8
:101340003069874205D33969A94214BF7C613C6189
:1013500001E000F0A9F9002C3FF47BAF31698C4229
:10136000ABD3A761286928B1884226BF2061846178
:1013700000F09AF9686900283FF46BAF3169884240
:101380009BD36061846164E798F8040000F0030077
:1013900003287FF45EAFC6F8089049F00101D8F841
:1013A000040040084000C8F8040069600AE0706961
:1013B00080450AD1B16875618944C6F8089049F042
:1013C0000100686045F8099057E1E408E400A14491
:1013D000E408202C3AD2D8F80CA0D8F80870D045F0
:1013E00008BF00F061F9B84508BF00F05DF9D8F812
:1013F0000400C008C000B0EBC40F18BF00F054F9DF
:1014000006F1280000EBC400874207D031698F4203
:10141000C0F08580FA68424540F08180BA4507D126
:101420003068012101FA04F420EA0404346078E011
:10143000824506D03069824571D3DAF808104145FB
:101440006DD1C7F80CA0CAF808706AE0D8F80C4053
:10145000D8F8187044450DD0D8F808003169884292
:1014600023D3C268424504BFA16841451DD1C46071
:10147000A0601CE008F114010C6834B908F11001F7
:101480000C68A4B101E011460C6804F11402106864
:10149000002802BF04F1100210680028F3D130695F
:1014A000814202D300220A6001E000F0FDF8002F23
:1014B00037D0D8F81C1006F5987000EB8100026850
:1014C00090450AD10460200012D1D8F81C00716840
:1014D000012282409143716023E03069874205D345
:1014E0003969414514BF7C613C6101E000F0DCF8E2
:1014F000BCB131698C4212D3A761D8F8100028B171
:10150000884226BF2061846100F0CEF8D8F814002C
:1015100038B13169884202D36061846101E000F032
:10152000C3F849F00100686045F8099071698D427F
:101530000BD1C6F80890A0E064086400C8F8044025
:1015400049F00100686045F809904FEAD907202F5B
:1015500022D206F1280000EBC704A046B9F1100F13
:1015600038BF00F0A1F8306820FA07F1CA0705D4A7
:10157000012101FA07F70743376006E0A0683169E7
:1015800088422CBF804600F08FF8A560C8F80C5048
:10159000C5F80880EC6070E05FEA192008BF002100
:1015A00023D0B0F5803F28BF1F211ED2A0F5807246
:1015B000120C02F008029040A0F58051090C01F0D5
:1015C00004018840A0F580431B0CC2F10E0203F019
:1015D0000203521AD21A984002EBD032D01D29FAD7
:1015E00000F101F0010101EB420106F598720023C0
:1015F00002EB8100E9616B612B61726822FA01F3F1
:10160000DC0707D4012303FA01F11143716005607F
:10161000A8611DE002681F291DBF4908C1F1190119
:1016200009FA01F1494600E002465068C008C000CE
:10163000484526D002F11003C80F03EB8003490090
:1016400018680028F0D13069834204D31D60AA6174
:10165000ED60AD6001E000F027F8306A401E3062B6
:101660000BD1D6F8C80100E080680028FCD14FF00B
:10167000FF30306201E000F017F8AFF30080BDE802
:10168000F087316990688A4228BF8842E3D3C560F9
:101690009560A860EA600020A861DEE7289E00202F
:1016A00030BC002070470000012000F053B8F0B4B7
:1016B0000246106895681318506803EB5004C00781
:1016C0001DD54D441BE013F8017B05F8017B491E35
:1016D000F9D1A0B1B60813F8011B06F00306032EDA
:1016E00008BF13F8016B01EB06214942801C294415
:1016F00005D011F8016B05F8016B401EF9D1A3422A
:101700000ED013F8016B16F0030104BF13F8011B90
:10171000C91C30090F28DAD113F8010B0F30D6E7B6
:10172000F0BC02F10C0070470749086808B10020BE
:1017300070470648C008C00008600549C908C900CC
:10174000091A0160704700BF10A7002027AB0020D6
:1017500020AD002080B5AFF30080024A11001820B0
:10176000ABBEFBE7260002002DE9F04F89B005462D
:10177000139C92469846200000F00F818946129EE5
:10178000484600F016FF0746484600F0EBFEADF86D
:1017900014004846ADF810A0ADF81280ADF81670F0
:1017A00000F0A3FF8246484600F0BFFF804648464F
:1017B00000F0E1FF022806D12346324604A9504634
:1017C00000F0EFF8ADE1484600F05BFF48B9009447
:1017D000334601902C68284604AA51462569A8473B
:1017E0009FE1494606A800F006FFBDF91E00BDF9BD
:1017F00018E0BDF91A30BDF91C10ADF80200B6F9B9
:101800000090B08848440FFA80FCE6451BDA01EBF3
:101810000E02714409B28945ADF8002013DAB6F919
:101820000220B6F806C094440FFA8CF7BB42BFBF43
:10183000BDF80210C9180FFA81FB5A4503DAF145C9
:10184000A8BFCE4605E04FF0000E00220020002188
:1018500011E09A42BDF9009007B209B20FFA8CFC70
:10186000B8BF1A46B945B8BF48466145A0EB0E005F
:10187000C8BF6146891AADF80C00ADF80E10BDF96D
:101880000C10ADF808E0ADF80A2000291CBFBDF926
:101890000E00002800F0828000942846002102AB50
:1018A00001912D6804AA5146D5F810C0E047BDF952
:1018B0000A00B6F90210814213DAB6F90030B6F91F
:1018C0000420401AADF81A10ADF8183006ABADF888
:1018D0001C2004AAADF81E0041460094504600F0BA
:1018E00023F9B6F90000BDF90810884215DABDF8F1
:1018F0000820BDF90E10BDF90A30ADF81800ADF89A
:101900001E104146ADF81A3006AB121A0094ADF81D
:101910001C2004AA504600F007F93188B088BDF8B1
:1019200008204118BDF80C0009B2821812B28A4290
:1019300013DABDF90E00BDF90A30891AADF8182086
:10194000ADF81A3006ABADF81C1004AAADF81E00B5
:1019500041460094504600F0E7F87188F088BDF8E1
:101960000A204118BDF80E0009B2821812B28A424C
:1019700013DAB6F90030B6F90400891AADF81A2066
:10198000ADF8183006ABADF81C00ADF81E10009491
:1019900004AA4146504600F0C7F8C2E0009433461E
:1019A000F6E72DE9F04F89B0044616460D461F466E
:1019B00006A8082200F022FF04A831460822DFF81A
:1019C000DC6A00F01BFF06A800F0B8FF294604A857
:1019D00000F0C9FFBDF91220BDF91C10BDF91000BF
:1019E000BDF9165011FB02F10818BDF8181004EBF0
:1019F0008008BDF81000BDF914400818ADF81000BB
:101A0000BDF81A0082183068ADF8122001688A6BA0
:101A10009047FF2F019733D1800633D43068DFF829
:101A2000809A01680A6A9047B9F80030BDF912102F
:101A3000BDF910204B439918002D00EB41036CDDDC
:101A40002A460097002C5CDD2146D8F800E05FEACA
:101A50001E6051D0FF284FEA1E2C4FEA5E150CF491
:101A6000784C05F4FC65CEF3C40E04BF019FFF2F34
:101A70001AD145EA0C0C4EEA0C0CA3F800C03BE06E
:101A80004006CBD5ADB23068A4B203970195BDF83E
:101A90001C100094BDF81230BDF8102002910468AB
:101AA0004146656CA8473CE0DDF800A01F8800FBBC
:101AB0000AF0C0F5803A07F4784B0AFB0BFB00FBF9
:101AC0000CBC07F4FC6B0AFB0BFB07F01F070AFBBF
:101AD00007F74FEA1C4C0CF4784C00FB05B500FBF3
:101AE0000E772D0C05F4FC6545EA0C0C3F0C07F055
:101AF0001F0747EA0C071F809B1C491E08F10408BA
:101B0000A3D1B9F80000001B03EB4003BDF91C0092
:101B1000001B521E08EB800894D1306801684A6AA5
:101B2000904709B0BDE8F08F2DE9F04F85B08046B1
:101B30000D4616461F460E9C68463146082200F0A8
:101B40005DFE02A83946082200F058FE684600F003
:101B5000F5FE314602A800F006FFBDF90A20BDF9E6
:101B60000410BDF90800BDF90C7011FB02F1081852
:101B70002E1808EB4008BDF80800BDF80010BDF9AC
:101B80000E500818ADF80800BDF802008218DFF802
:101B90000C090068ADF80A2001680A6A9047DFF86E
:101BA0000039BDF90A10B3F800C0BDF90820FF2CB8
:101BB00001FB0CFC0CEB020100EB410052D0012DAB
:101BC00049DB2A4604940546012F38DB3946307834
:101BD00078B3049CB5F800C0B8F800E06043C0F5E5
:101BE00080340CF4784A0CF4FC6B04FB0AFA0CF019
:101BF0001F0C04FB0BFB0EF4784904FB0CFC00FBF0
:101C000009A90EF4FC6A00FB0ABA0EF01F0E00FBD5
:101C10000EC04FEA194909F478494FEA1A4A0AF402
:101C2000FC6A000C4AEA090900F01F0040EA0900BA
:101C30002880AD1C761C491E08F10208C7D11888FF
:101C4000C01B05EB4005BDF90400C01B521E08EB8C
:101C500040080644B8D1DFF84408006801684A6AC1
:101C600090472CE2012DF6DB2A460546012F3BDB8F
:101C70003946307890B3B8F800E0FF2808BFA5F8DF
:101C800000E02BD0B5F800C0C0F580740CF4784AA1
:101C90000EF4784904FB0AFA0CF4FC6B0CF01F0CF0
:101CA00014FB0BFB14FB0CFC00FB09A90EF4FC6AF3
:101CB00010FB0ABA0EF01F0E10FB0EC04FEA1929D6
:101CC00009F478494FEA1A2A0AF4FC6A000A4AEA37
:101CD000090900F01F0040EA09002880AD1C761CAD
:101CE000491E08F10208C4D11888C01B05EB400545
:101CF000BDF90400C01B521E08EB40080644B5D1D4
:101D0000A9E72DE9F04F89B00C46DDF848A015464B
:101D10001E46BAF1000F00F0B880139F07A82946AD
:101D2000082200F06BFD05A831460822DFF86C6739
:101D300000F064FD07A8D04600F000FE294605A883
:101D400000F011FEBDF91620BDF92010BDF91400F8
:101D5000BDF91A5011FB02F10818BDF81C1004EB74
:101D60004009BDF81400BDF918400818ADF814007A
:101D7000BDF81E0082183068ADF8162001688A6B25
:101D80009047B8F1FF0F00F08180400700F1848098
:101D90003068DFF80C7701680A6A90473B88BDF924
:101DA00016C0BDF91410B8F1FF0F0CFB03FC8C44F6
:101DB00000EB4C0000F0C78019F0030101BF10F0E8
:101DC000030204EBD4725210B4EB420178D1BDF996
:101DD00020E0CDF808E0714601EBD17E4FEA6E0EAF
:101DE000B1EB4E01CDF804E06AD1002D0146C8F5F3
:101DF000807846DDC2EB630328460393DFF8A43600
:101E00000025002C34DD00940C6859F8047BAD1CCF
:101E10004FEA142E0EF0F81E08FB0EFE4FEA172CA8
:101E20004FEA571B0CF0F81C0BF03F1B07F01F1775
:101E30000AFB0CEC4FEA541E0EF03F1E04F01F1478
:101E400008FB0EFE08FB04F40CF0F82C0AFB0BEB6D
:101E500003EADB0E0AFB0744240A04F01F144EEACF
:101E60000C0C44EA0C0441F8044B009CA542CBDB6B
:101E7000019F039D01EB8501BF1A401E09EB8709F5
:101E8000BED1306801684A6A90474AE639007FF45B
:101E90007FAFC0077FF57CAF3068ADB2A4B20497C6
:101EA000CDF80CA0BDF820100195BDF816300094B7
:101EB000BDF81420029104684946256CA84730E615
:101EC000002DC8F58073DCDD29460246002C2EDD8E
:101ED0002046158839F802CB05F4784A03FB0AFA44
:101EE00005F4FC6B05F01F0513FB0BFB0CF4784E9F
:101EF00013FB05F508FB0EAE0CF4FC6A18FB0ABADE
:101F00000CF01F0C18FB0C554FEA2E2E0EF4784ED9
:101F10004FEA2A2A0AF4FC6A2D124AEA0E0E05F04C
:101F20001F0545EA0E05401E22F8025BD1D1388814
:101F3000001B02EB4002BDF92000001B491E09EB0B
:101F400040099ED0C2E7002D9BDD4FEA440882463F
:101F50002C46306843464A4651460568D5F834C099
:101F6000E047641E3888BDF920100AEB400A09EBEF
:101F70004109EED185E72DE9F04F1D46E8B2002872
:101F800085B01FBFB1F90440002CB1F90630002B19
:101F900000F08180904603A80822DFF8006500F079
:101FA0002DFC03A8EDB200F0C9FC30682F46016893
:101FB0008A6B9047FF2F12D1800712D530680295A7
:101FC000BDF81020BDF81210BDF80E300092BDF81B
:101FD0000C20019104684146E56CA8476FE00007BA
:101FE000ECD43068BDF91050BDF9124008F01F095B
:101FF00017FB09F9C7F5807A01680A6A9047DFF88C
:10200000A024BDF90EC01188BDF90C30FF2F08F4D3
:10201000FC6E17FB0EFE01FB0CFC0CEB03011FFA20
:1020200088FC0CF4784C00EB410307FB0CFC33D02C
:10203000002C2CDD21466C006442002D21DD284659
:10204000B3F8008008F478470AFB07C708F4FC6B74
:1020500008F01F081AFB0BEB3F0A07F47847401EF5
:102060001AFB08984FEA1B2B0BF4FC6B4BEA070793
:102070004FEA182808F01F0848EA070823F8028BDF
:10208000DED118191388491E00EB4303D5D13068FF
:1020900001684A6A904712E0002CF8DD21466C0086
:1020A0006442002D04DD2846401E23F8028BFBD13C
:1020B00018191388491E00EB4303F2D1E7E705B076
:1020C000BDE8F08F2DE9FC4F89B08A461898DDF8FD
:1020D0006490B0F900108288521812B202924288BD
:1020E000C088821812B2019299F80D20100799F851
:1020F00006004CBF4FF4807600260643D00699F8C0
:1021000007004CBF4FF4807200220243002E07925A
:1021100018BF002A00F0BD81169FBDF9508099F9C3
:1021200009003A0007D03F1A38B2002804D5A8EBBE
:102130000708002700E080440FFA88F0884203DA9D
:10214000CF19A7EB08078846DFF85C03017809A8D8
:1021500001290FFA88F107BF01228DF80020002322
:102160008DF800309DF87830BDF954201C9DDDF8C5
:102170006CB001F014F89DF87830BDF95420ADF83A
:102180001A000FFA88F109A801F01DF8ADF818003F
:1021900006A90DF11A0000F0ADFB9DF878000028AB
:1021A00004BF9DF80010002904D0012810D19DF82B
:1021B000001069B1B94C20680268916B884701062C
:1021C00026D5042D24D199F80D0010F001003ED140
:1021D0005046B34AB2F800A0BDF91830BDF91A1044
:1021E000FF22C5F1080CEA405FFA8CFCCDF80CC068
:1021F0000AFB0313314600EB4300D343042D049044
:10220000DBB206BF99F80D0000F00100002037E0B6
:10221000C005DDD5082DDBD14FF48071BDF85C0021
:10222000384380B20028D3D1029A06FA88F082425D
:10223000CEDBBDF95400079B019A1B189A42C7DBFD
:10224000082D1EBF761C4FF6FE70064001E080216F
:10225000E4E7206805919DF87410CDF80CB0029663
:10226000BDF81830049107990096BDF81A2089B27C
:102270000191D0F800B01A99DBF84850A84708E15E
:1022800006F0010E10EA0E0FBDF85C00DDF8689054
:1022900018BF491C384380B2D0B1BDF85CE00EFBDA
:1022A000017E15FB0EFE1FFA8EFE0EF00704C4F130
:1022B0000804641BE4B209EBDE090394BDF85C007A
:1022C000DDF81CE0AEEB000E1FFA8EFECDF81CE030
:1022D0009DF800E09DF87800BEF1000F00F09480BA
:1022E000012807D0C0F09880032800F09880C0F043
:1022F000998091E04FF0010E9DF80040002C00F015
:102300009380012807D0C0F09780032800F09680C2
:10231000C0F0978090E05046DDF81CA00FFA88F8D6
:10232000CDF800A0BDF954A0019CBFB289B2A4EBC6
:102330000A0A009C5445C8BF54460094DDF808A022
:10234000AAEB080ABA445645C8BF5646F71BC91B34
:10235000002C01FB05F640F39C80711B0096059153
:102360009DF8741007FB1E00C84607900398019162
:10237000049902972646029F002F70DD8DF8705059
:102380000492039398F80030039A83401A40D2B223
:10239000A2B3049B1A43FF2A5B4602DB019DFF2D7B
:1023A0002BD0019BB1F800905A431FFA8BF3C2F572
:1023B000803503F4784309F4784A09F4FC6405FB9A
:1023C0000AFA6C4309F01F0905FB09F502FB03A398
:1023D0000BF4FC6A02FB0A4A1B0C03F478434FEA35
:1023E0001A4A0AF4FC6A4AEA03030BF01F0A02FBCA
:1023F0000A552D0C05F01F052B430B8020B39DF8CB
:102400007020801AC0B222E001280BD0FFF472AF16
:10241000032801D003D36DE7CAF1000E6CE74FF03B
:10242000FF3E69E7D64667E701280AD0FFF473AF9D
:10243000032801D002D36EE701206DE7CAF1000A3C
:1024400069E74FF0FF3067E7604608F101087F1E3B
:1024500001EB4E0196D19DF87050049A039B009FAA
:102460008FB1B84209DA059F3F1A4FEAA70907EB77
:10247000597708EBE70707F10108DDF800A0A0EBAA
:102480000A0000F00700761E079F01EB47017FF46A
:1024900072AF0BB0BDE8F08F00000000B8A60020BE
:1024A000B4A60020E007E007AEA600203CB4144626
:1024B000DFF83453AA683AB9049AA86069802046C4
:1024C00002B0194630BC01E033BC704718B4DFF8E5
:1024D0001843A3692BB921B1A2802162206111BCEC
:1024E00002E011BC70470000DFF8FC2211690029EE
:1024F00000D1704770B493885088DFF8F4521818F0
:10250000461C05EA460501EB800656612E44D6605E
:1025100001EB80062E4406EB03169661002616801A
:10252000166AA6EB8004641BA4EB0313D36100239B
:10253000D38048B153694FF6FF740025401E41F81F
:10254000045B23F8024BF9D10020002105E0D46898
:102550000023401C0C441031A37393889842F6D397
:1025600070BC704781B001889F4B98680A46B8B12B
:10257000B3F802C0614506D202EB8201083089003F
:10258000405A01B0704798886044824208DAD8689F
:10259000A2EB0C02120100F10801885A01B0704749
:1025A0004FF6FE718A4206BF92490888002001B0AA
:1025B000704738B401888C4B98680A4690B15C88A3
:1025C000A14204D202EB820100EB810007E09D886A
:1025D0006519AA4206DAD868121B00EB021040897E
:1025E00032BC70474FF6FE718A4206BF82490888A6
:1025F000002032BC704730B583B00A887A4CA1689D
:1026000031B36588AA4215D202EB820201EB820146
:10261000B1F90C20ADF80020B1F90E20ADF8022080
:10262000B1F91030ADF80430498AC1F30C01ADF8AE
:10263000061020E0A18869188A4209DAE168531B74
:1026400003B0082201EB0311BDE8304000F0D6B81A
:102650004FF6FE718A420BD10021664B0091664A0B
:10266000595EB2F90040ADF80410ADF8064002E042
:102670000021009101916946082200F0BFF803B0E3
:1026800030BD594A81B0916861B30088538898423F
:1026900011D200EB800290000A180831138A085A00
:1026A00083421CD3508A518901B0C0F30C00884288
:1026B0008041C00F7047B2F804C09C44604511DAF5
:1026C000D168C01A00010A180831B2F90430085A5A
:1026D0008342A2BFB2F906005189884202DA012082
:1026E00001B07047002001B0704781B001884FF6FB
:1026F000FF70814208BF002015D04FF6FE70814266
:1027000004D13A480168086C01B07047364A106934
:1027100000281CBF50F82100002804D1906801EB6C
:1027200081029100405801B0704781B000884FF697
:10273000FE7102468A421BDA2B494B88984217D217
:10274000886802EB820300EB8303586880B1096953
:1027500000291CBF51F8221000290AD01A89588973
:1027600001B042435200D21C920801EB8200704734
:10277000002001B0704738B501881B4B98680A46A5
:10278000A0B15C88A14206D202EB820100EB81007D
:10279000C07C400932BD9D886519AA4206DAD86816
:1027A000121B00EB02108089C0B232BD4FF6FE71E1
:1027B0008A4216D10D490A6890680368196A8847E9
:1027C000012806D0022806D0042806D0182806D0F2
:1027D00007E0032032BD052032BD062032BD0120B6
:1027E00032BD002032BD000040A60020B8A6002067
:1027F000FCFF0100B0A60020B2A6002062B38B0748
:1028000008D0521E11F8013B00F8013B00F0248073
:102810008B07F6D1830740F0208000BF103A07D322
:1028200030B4B1E83810103AA0E83810F9D230BC12
:10283000530724BFB1E80810A0E8081044BF51F8BE
:10284000043B40F8043BD20724BF31F8022B20F8A8
:10285000022B44BF0B7803707047121F17D35B0025
:1028600009D151F8043B20F8023B1B0C121F20F841
:10287000023BF6D20BE051F8043B00F8013B1B0A87
:1028800020F8023B1B0C121F00F8013BF3D238BFAB
:10289000121D521E24BF11F8013B00F8013BF8D86D
:1028A0007047F8B50F460546387905F12C0634789F
:1028B00010B90120ECB901E00020D4B130702968D2
:1028C0002846D1F8882090472B68284659698847C0
:1028D0007CB1387901280CD1706850B10168CA68A0
:1028E000904730B17068294602689368BDE8F440AB
:1028F0001847F1BD274B284A30B41C78B2F90020A4
:10290000012C06D10D88B0F900300580501EC31A85
:102910000B8030BC70471F4A1378012B00D07047E2
:1029200070B41E4C0A88B4F90050B0F900306E1E25
:10293000B61A06800B8070BC7047000070B5044664
:10294000154E1748B6F90030B0F9005084B0002297
:102950000021009501A800F054FC0146204600F03B
:1029600002F804B070BD0B4A1378012B00D07047F9
:1029700010B4B0F9042004881419631E448804803C
:1029800089884C1EE31A4380C388C280838010BCB0
:1029900070470000AEA60020B0A60020B6A600201A
:1029A000B2A600202DE9F84F00250026002A28DDD8
:1029B0004FF4807983460F46984614464146584660
:1029C000B24600F058FC0646D8B10A2E19D03A6833
:1029D00031463846D368984788B1417B3B68868842
:1029E0000A06827AD3F838C04CBF49460021114309
:1029F0004D19024651463846E0472D18ADB2641EC7
:102A0000DCD12846BDE8F28F70B5054601240800E8
:102A10008CB0164614D0BDF94000019100933346A6
:102A2000294682B202A800F0ABFC002102A800F007
:102A3000D4FABDF80800002818BF641CF5D10CE0DA
:102A40003146284600F017FC0A283146284608BFC0
:102A5000641C00F010FC0028F6D1A0B20CB070BDD0
:102A600036B51A46DFF8D8124B6883B000EB630026
:102A70000AACDB0751BF0D68036809685D58099906
:102A8000089B009103A90194A84705B030BD2DE92A
:102A9000F14FA8B0DDF8C8B0BBF1000F1EBF1F4654
:102AA000386800281CBFBB7B002B00F018810991FF
:102AB000114607A80822FFF7A1FE09984FF0000869
:102AC000B0F904A0B0F90660B879012829D03BD349
:102AD000032801D013D337E0BDF92220BDF81E0032
:102AE000BDF92010BDF91C30ADF82020ADF81E3026
:102AF000B41A241AADF81C40ADF8221024E0BDF839
:102B00002200BDF81E10BDF82020301A411ABDF871
:102B10001C00ADF81E10AAEB0202121AADF81C2020
:102B200012E0BDF92000BDF92210BDF81C20ADF85F
:102B30002010ADF82200AAEB00039A1ABDF91E304E
:102B4000ADF81E20ADF81C30B879012818BF032855
:102B500002D15046B246064611A800F077FB339AE0
:102B6000594600F0E4FB0BA800F070FB387930B157
:102B7000339A59460BA8012400F0D9FB00E0002449
:102B8000386801680A6B9047BA898518BDF91E003C
:102B900090FBF5F917A800F059FB397C19B1339A6D
:102BA000594600F0C4FB387C1FFA8AF217A901903D
:102BB000386800907B791DA800F0E2FB387C002883
:102BC00000F0B780B9F1010F26DBAB4636B21DA885
:102BD000B6EB4B0FB4BF0121002100F0FEF9BDF8A8
:102BE0008A5009E0797911A86D1E00F044FB1CB1F0
:102BF00079790BA800F03FFBA8B20028F2D1BDF80C
:102C00007400D844A6EB0B06A9F10109002866D090
:102C1000B9F1000FDAD15D46DFF82811DDF8A0B078
:102C2000086847F6FF790268136A9847CDF8A0B0A4
:102C3000ADF828A02690387C4FF0000B40B136B29A
:102C40001DA8B6EB450FACBF0021012100F0C5F96E
:102C5000002C6CD0387C002859D0BDF9920039790D
:102C600001295BD1BDF9281000B2081A00EBD07021
:102C700040108346ADF82AB0387C9DF896100DF1CF
:102C80002A020FFA88F300280CBF4846BDF88A00D4
:102C900006910021059011A80490039107A90297BD
:102CA0002898019126990092099A00F04DF880B970
:102CB000387CA844761B10B136B2AE4209DBBDF8B1
:102CC0001E10BDF82200411809B20FFA88F08142A7
:102CD000B1DADFF87000006801684A6A90472CE0BA
:102CE0000A2D07D10098A9F101098044361AB9F1DB
:102CF000010F20DB797911A800F0BDFA05461CB15F
:102D000079790BA800F0B7FA002DE9D115E0396800
:102D100000234A460BA8FFF745FEA0E70229A9D1E8
:102D2000BDF9281000B2081AF97B401AA1E7F87B18
:102D30009FE70095DBE7009D6EE729B0BDE8F08FC7
:102D4000200D0020B8A600202DE9F14F9B4696B03B
:102D5000229B9246219ADDF880901588259C269822
:102D6000968875191E682DB296F809E0CDF834E002
:102D7000367AA6460C96B9F900604FF0000928B1E2
:102D8000187C04280CBF022001208644BEF1000FED
:102D9000C84640F31E81249FADF82EB023981391AE
:102DA000DDF858B00F90CDF858B0CDF848A021927A
:102DB00022938DF88C002497109500252594CDF84A
:102DC00044E025984F46804505DB2298006801685D
:102DD0004A69904704E09DF88C10249800F04BFA63
:102DE00081464FF6FF6081451CBF42F20B008145D2
:102DF00000F0CE80B9F1000F00F0EB80B9F10A0FBE
:102E000000F0E58022980BAB0EAA494600680468E2
:102E1000D4F808C0E04704000CD09DF88C00B4F84A
:102E2000049000B9AE19617B0A064CBF4FF480755F
:102E300000250FE02298006801680A6990474FF664
:102E4000FF6290421CBF42F20B02904200F0A08051
:102E500000259DE0A07A05430F98012808BF761B46
:102E60007FB122992246086801688B6B9DF88C100F
:102E70000029394602D19847361805E09847361A96
:102E800008E09DF88C0028B90C9A1099B21A91426A
:102E9000C0F284800F98012807D121990D9AB1F9C9
:102EA0000000AA18B218824278DB607B94F806C052
:102EB000010794F909004CBF4FF4807200223318C7
:102EC00021984CEA02029A18B0F9000082425FDBB6
:102ED000109A93425CDA002786424FF0000AB8BF8E
:102EE000871B229800680168CA6A9047617BBDF819
:102EF0002EC04A064CBF4FF47E4200228B0660442F
:102F00004CBF4FF4807300231A43237A1A43801A6C
:102F1000219A00B28346B2F9022090420EDAC90625
:102F200094F807C04CBF4FF4807100214CEA0101B6
:102F3000411891422CDB9346A2EB000A129914A887
:102F400008221FFA8AFAFFF759FC2298229A8179FF
:102F50000A919DF82C10907B229A08910E99099065
:102F60009068069107902199B8B2BF1905943FB2B5
:102F70000491CDF80CA00290CDF804B000971698FB
:102F80001399DDE91423D0F800C0DCF82870B847A5
:102F9000119808F101088045FFF613AFB9F1000F51
:102FA0009DF88C50249E259C13D0B9F10A0F0ED0A9
:102FB00008F10108A0450ADAA4EB080429463046C6
:102FC00000F059F928B10A2801D0641EF6D100207A
:102FD00000E0012017B0BDE8F08F002300222DE9AA
:102FE000F04F00245FEA010A83B09046467A0CD085
:102FF000032E01D1012412E0042E18BF012EF9D0B6
:10300000022E0CD14FF0010809E0032E01D101235B
:1030100005E0042EFBD0012E14BF022E0122002653
:10302000B146C6824FF4807A068306468DF80010BA
:103030000293019208E0738B8918F1833183181889
:10304000F08200207083B083317A7068358800F098
:1030500012F9002830801FBF718B491C71830A2828
:103060000CD1B18BF28A708B8218308BF2820918E6
:103070000020F18331837083B0838DE03269014693
:1030800010461268D36898470200DDD09088202847
:10309000308003D1202D18BFB6F81C90507BB78B21
:1030A00001063069917A03684CBFD3464FF0000B9C
:1030B000D3F838C041EA0B0B2946E047B18B58449E
:1030C000328BB6F814C04118B183B18B9DF8000063
:1030D0008B189C45B4BF4FF0010E4FF0000ED8B1D5
:1030E0002CB9B8F1000F09D03588202D06D1378CC6
:1030F000F08ADB199C459EDA00289CD0BEF1000FB7
:103100001CBFF08A00289FD00121308C86F8221045
:10311000F18B4118F1833FE0BEF1000F25D00298FA
:1031200060B1748BF38ABA18F283601EC318F382FD
:103130000120C91B32837083B1832DE001980028E0
:103140001CBF3388202B3FF47FAF202DF08A08D19D
:10315000748B9144A6F81E90BA18631E1818F0825A
:10316000E6E700283FF470AF16E0308820283FF4EF
:103170006BAF202D7FF468AF708BF38AC91BB183CE
:10318000A0F1010C09EB0200BA186344328301225A
:10319000F382F083728357E703B0BDE8F08F012B11
:1031A00007D002D3032B0AD006D3B0F900000818C9
:1031B0007047018880881AE0028880881CE0B0F996
:1031C000000010187047012B07D002D3032B0BD03F
:1031D00007D3B0F9020010187047B0F902000818C0
:1031E00070474188C08802E04288C08804E04118E6
:1031F00009B28A1A501E7047821812B2511A481E1C
:10320000704710B5BDF90840018042808380C480BA
:1032100010BD30B4002513E050F8042BD30744BF91
:10322000A9F101039A18091F042942F8045BFAD294
:1032300013468C0744BF15809B1CC90748BF1D70EF
:1032400050F8041B0029E7D130BC704710B5044684
:10325000002020606060204600F06BF8204610BD22
:1032600038B50446A08A658A6082204600F01DF8C1
:10327000A082284632BDF8B506460F46FFF7F0FF9C
:10328000DFF8F0201468516814B9CB070CD559B198
:1032900006EB6105C9073B4606F1120244BF2968E7
:1032A0000C5901462846A047F2BD38B50546DFF85F
:1032B000C8401DE000202874206829680268136B4C
:1032C00098476968088880B3022829D1881CAA68B1
:1032D00068602068AA6052F8041BAA600268136B39
:1032E00098470028E8601FBF018800290120287442
:1032F000686830B92968C1B120680268136B9847C3
:103300006860297C0029DCD0E86800281CBF0088A0
:103310000028CFD0E968891CE96031F8020D32BD80
:103320008A1C6A6032F8020D32BD002032BD826014
:10333000016010B5044600206060E0602074204603
:10334000FFF7B3FF60822046FFF7AFFFA0820B4B71
:103350001968586811B9C2070BD550B104EB600267
:10336000C00702D51068196841581046BDE81040E2
:10337000084710BDD8A60020B8A60020D0A600207F
:1033800070B582B00446069D0798002626806072BC
:103390002561206961602372E660A282E68226834D
:1033A0006683A683E683268484F8226001684A69DE
:1033B0009047050025D0206929460268D3689847C0
:1033C000E060437B817A1A064CBF4FF48072002282
:1033D0000A43617A2284042913D1236902462946CB
:1033E00018461B689D6BA847E1684A7B897A1306DB
:1033F000238C4CBF4FF4807200220A431018C3186C
:103400002384204676BD10B54268C36802EB630290
:10341000DB0751BF83681468806823581046BDE8F5
:1034200010401847000020C8FECE1700000000F82A
:10343000FFFFFFFF050000B0FFFFCDFEFF5F0000B4
:10344000F7FF190040FEFF0210FF9F000000F3FF8E
:103450000970FF1E00000090FF0FC0FF0900000070
:1034600040FF3FF0FF0500000000FF7FF3FF020078
:10347000000000FD9FF5FF0000000000FBBFF7EF1C
:103480000000000000FACFF8EF0000000000F9DFB4
:10349000F9DF0000000000F8DFF9DF0000000000A5
:1034A000F8DFF8EF0000000000F9DFF8EF0000009F
:1034B0000000FACFF6FF0000000000FBAFF4FF02AF
:1034C00000000000FD8FF2FF0500000000FF5FE03C
:1034D000FF0800000050FF1FA0FF0E000000B0FF1B
:1034E0000C40FF7F000000F4FF0500FDFF080060B6
:1034F000FFCF0000F2FFFFCDFFFF1E000030FDFFF9
:10350000FFFFCF0100000060DBFFAD040000000002
:1035100000F9BF0000000000E4FFDF0000000091A0
:10352000FFFFDF00000040FEFFFEDF000000F6FFAF
:103530003CF8DF000000F96E00F8DF0000008501B4
:1035400000F8DF000000000000F8DF0000000000CD
:1035500000F8DF000000000000F8DF0000000000BD
:1035600000F8DF000000000000F8DF0000000000AD
:1035700000F8DF000000000000F8DF00000000009D
:1035800000F8DF000000000000F8DF00000000008D
:1035900000F8DF000000000000F8DF00000000007D
:1035A00000F8DF000000000000F8DF00000000006D
:1035B00000F8DF000000000000F8DF00000000005D
:1035C00000F8DF000000B2BBBBFDFFBBBB09F7FF8B
:1035D000FFFFFFFFFF1FF5FFFFFFFFFFFF0E0020B4
:1035E000C7FECE2800000020FBFFFFFFFF08000001
:1035F000F1FFFFFFFFFF8F0000F4EF2700C3FFFF85
:103600000200F307000000FBFF08000000000000BC
:10361000F3FF0C000000000000F0FF0D00000000B0
:103620000000E0FF0D000000000000F0FF0B0000B4
:1036300000000000F2FF09000000000000F8FF0495
:10364000000000000000FEDF00000000000080FF1E
:103650005F000000000000F3FF0B0000000000000E
:10366000FDEF010000000000B0FF4F00000000006F
:1036700000F9FF07000000000070FF9F000000003D
:103680000000F6FF0A000000000050FFBF0000002D
:10369000000000F4FF0C000000000030FFCF00002D
:1036A00000000000F2FF1D000000000000FAFFDE35
:1036B000DDDDDDDDBD00FCFFFFFFFFFFFFFF00F8EC
:1036C000FFFFFFFFFFFFDF000030C9FEDF39000012
:1036D00030FCFFFFFFFF0900F1FFFFDDFFFF8F0060
:1036E000F4BF040070FFFF02C203000000F8FF07F0
:1036F0000000000000F1FF0A0000000000E0FF0AE7
:103700000000000000F0FF090000000000F4FF05C9
:103710000000000000FDDF0000000000D4FF3F00BB
:1037200000A1AAEBFFCF030000F6FFFFFF4B000054
:1037300000F3FFFFFFFF3D0000000020C6FFFF0574
:103740000000000000F6FF1F000000000080FF8F57
:10375000000000000010FFCF000000000000FEDFAE
:10376000000000000000FFCF000000000040FF9FAD
:103770004900000000C0FF3FFF6C010040FDFF0B4F
:10378000FEFFEFDCFFFFDF01D4FFFFFFFFFF0900BB
:103790000083ECFFBE2800000000000000E5FF5E93
:1037A00000000000000010FEFF8F0000000000007D
:1037B00090FFFF8F000000000000F2EFFC8F000080
:1037C00000000000FB5FFB8F000000000050FF0CBA
:1037D000FB8F0000000000E0FF03FB8F00000000F3
:1037E00000F79F00FB8F0000000010FF1F00FB8F01
:1037F00000000000A0FF0700FB8F00000000F3DFC7
:103800000000FB8F00000000FC4F0000FB8F000059
:103810000060FF0B0000FB8F000000E0FF020000D3
:10382000FB8F000000F89F000000FB8F000020FFCE
:103830001E000000FB8F0000A0FF06000000FB8FB1
:103840000000F0FFCCCCCCCCFFEFCC0AF0FFFFFFA8
:10385000FFFFFFFFFF1FD0FFFFFFFFFFFFFFFF0E78
:10386000000000000000FB8F0000000000000000CE
:10387000FB8F0000000000000000FB8F0000000034
:1038800000000000FB8F0000000000000000FB8F24
:103890000000000000000000F96F000000F7FFFFCB
:1038A000FFFFFF2F0000FBFFFFFFFFFF5F0000FB9C
:1038B000FFFFFFFFFF2E0000FB3F000000000000A5
:1038C00000FB3F00000000000000FB3F0000000084
:1038D000000000FB3F00000000000000FB3F000074
:1038E0000000000000FB3F00000000000000FB3F64
:1038F00000000000000000FBAFAA9A470000000093
:10390000FBFFFFFFFF8E000000F8FFFFFFFFFF1C23
:10391000000000000041F8FFBF00000000000010A0
:10392000FDFF04000000000000F2FF0A000000009C
:103930000000C0FF0D000000000000A0FF0E00000E
:1039400000000000A0FF0D000000000000D0FF0BF1
:10395000000000000000F3FF07300000000010FD31
:10396000FF01F07E020000E5FF7F00F0FFFFCDFDCC
:10397000FFFF090090FFFFFFFFFF5E00000071DA0C
:10398000FEDE5A00000000000094EDFFAD050000CF
:1039900000C2FFFFFFFF5F000040FFFFCECBFE6FC6
:1039A0000000F3FF5E000020270000FDDF010000A3
:1039B00000000050FF2F000000000000C0FF0800C2
:1039C0000000000000F1FF02000000000000F5DF31
:1039D00000000000000000F9AF000000000000003F
:1039E000FB8F40D9FECE180000FCBFFEFFFFFFFF9B
:1039F0000600FDFFFFCFBAFEFF5F00FEFF5B000089
:103A000050FFEF00FE9F00000000F6FF04FD8F0056
:103A1000000000F0FF08FC9F00000000D0FF0AFB40
:103A2000AF00000000B0FF0AF8CF00000000C0FFA8
:103A300009F6FF00000000E0FF07F2FF05000000AC
:103A4000F4FF03D0FF0D000000FDCF0060FFBF01B9
:103A500000C2FF3F0000FBFFDFDBFFFF070000A00D
:103A6000FFFFFFFF5E00000000A4FDEF6B00000001
:103A7000D0FFFFFFFFFFFFFF3FF0FFFFFFFFFFFF54
:103A8000FF6FD0FFFFFFFFFFFFFF5F0000000000A0
:103A90000060FF1F000000000000D0FF0A000000CF
:103AA000000000F4FF03000000000000FBCF000056
:103AB0000000000020FF6F00000000000090FF0EDB
:103AC000000000000000F1FF08000000000000F707
:103AD000FF01000000000000FEAF00000000000039
:103AE00050FF4F000000000000C0FF0D000000006C
:103AF0000000F3FF06000000000000FAFF000000D5
:103B000000000010FF9F00000000000080FF2F0059
:103B10000000000000E0FF0B000000000000F6FFC6
:103B200004000000000000FDDF0000000000004075
:103B3000FF7F000000000000B0FF1F000000000039
:103B400000F2FF09000000000000F9FF0200000081
:103B5000000000FB9F0000000000000050DAFFCED4
:103B60002800000030FDFFFFFFFF090000F3FFDF2A
:103B7000AAFCFFAF0000FDEF030010FCFF0330FFC5
:103B80003F000000E1FF0860FF0E000000A0FF0BF7
:103B900070FF0D00000090FF0A60FF1F000000D0C2
:103BA000FF0720FFAF000000F5FF0100F9FF0A004A
:103BB00050FF7F0000C0FFDF04F9FF08000000F99C
:103BC000FFFFFF5E0000000040FEFFFF0500000059
:103BD00000C3FFFFFFBF01000080FFCF53FDFF4E7A
:103BE0000000FAFF060070FFFF0470FF4F000000A6
:103BF000E3FF0EE0FF0700000050FF5FF4FF01004D
:103C0000000000FE9FF5FF0000000000FC9FF5FF94
:103C10000200000000FE7FF2FF0900000050FF3F9D
:103C2000B0FF8F000000F6FF0C20FEFFCFAAEBFFD5
:103C3000EF0200C2FFFFFFFFFF2C00000094ECFF2B
:103C4000CE380000000060DAFFAE0500000040FD45
:103C5000FFFFFFCF010000F5FFDFCBFFFF0D0020CE
:103C6000FFDF030090FF9F0090FF2F000000FAFF8E
:103C700001F0FF08000000F2FF06F3FF0300000060
:103C8000C0FF0AF5FF0000000080FF0DF6FF0000F6
:103C9000000060FF0FF5FF0200000040FF1FF3FF70
:103CA0000400000030FF2FF0FF0B00000030FF3F4A
:103CB00090FF9F000010F8FF3F10FEFFBFBAFDFF0E
:103CC000FF2F00D2FFFFFFFFBFFF1F0000B6FEEF78
:103CD0007B31FF0F00000000000050FF0D000000CE
:103CE00000000080FF0A000000000000D0FF060076
:103CF0000000000000F3FF01000000000000FC9F36
:103D0000000000000000A0FF1F005037000040FD31
:103D1000FF0600A0FFCECBFEFF7F000080FFFFFF6D
:103D2000FFDF04000000A5FDEF9D05000000C0EFCF
:103D300004F4FF0AF5FF0BF2FF09406700000000E2
:103D40000000000000000000000000000000000073
:103D50000000000000406700F2FF08F5FF0BF4FFD1
:103D60000AC0EF04F5FFFFFFDE49000000FAFFFF85
:103D7000FFFFFF3D0000FAFFCCCCFEFFFF0300FA7F
:103D8000BF000030FBFF0D00FABF000000B0FF4F86
:103D900000FABF00000020FF8F00FABF0000000003
:103DA000FFAF00FABF00000000FDAF00FABF000047
:103DB0000000FF9F00FABF00000040FF5F00FABF55
:103DC000000000D1FF0D00FABF000072FEFF0300EB
:103DD000FAFFFFFFFFFF3D0000FAFFFFFFFF6F004C
:103DE0000000FAEFBBECFFDF020000FABF0000F5B5
:103DF000FF0E0000FABF000040FF9F0000FABF0066
:103E00000000F9FF0100FABF000000F1FF0800FA0E
:103E1000BF000000A0FF0E00FABF00000040FF5FDF
:103E200000FABF00000000FDCF00FABF0000000054
:103E3000F7FF02FABF00000000F1FF09FABF00001F
:103E40000000B0FF0FF78F0000000030FE2E0000D2
:103E500095EDEF8C020000E7FFFFFFFF6F0040FFD2
:103E6000FFACCAFFFF0440CF050000E2FF0B0003D8
:103E700000000050FF0F000000000010FF2F0000A6
:103E800000000000FF3F000000305455FF3F0010CD
:103E9000D8FFFFFFFF3F00F5FFFFFFFFFF3F40FFA1
:103EA000DF260000FF3FC0FF0B000000FF3FF1FFD7
:103EB00003000000FF3FF2FF02000000FF3FF1FFA0
:103EC000040000A0FF3FE0FF1D0010FBFF3F60FF6C
:103ED000FF9AFBFFFD3F00F8FFFFFF4EF83F003069
:103EE000EAEF7C00F62E00000000000010FE0D003E
:103EF000000000000030FF0F00000000000030FF55
:103F00000F00000000000030FF0F00000000000064
:103F100030FF0F00000000000030FF0F0000000025
:103F2000000030FF0F00000000000030FF0F000015
:103F300060EBEF3930FF0F0020FDFFFFFF38FF0F70
:103F400000E2FFFFEDFFCFFF0F00FBFF0800C3FF04
:103F5000FF0F30FF8F000000FAFF0F80FF0E000000
:103F600000A0FF0FC0FF0900000030FF0FF0FF06A8
:103F700000000030FF0FF0FF0400000030FF0FF1E1
:103F8000FF0300000030FF0FF1FF0400000030FFCE
:103F90000FF0FF0600000030FF0FD0FF0800000008
:103FA00030FF0FA0FF0D000000B0FF0F50FF6F00AB
:103FB0000000FAFF0F00FEFF0600D3FFFF0F00F422
:103FC000FFEFECFF7FFD0F0050FFFFFFEF05FD0F40
:103FD000000082FDCF1700FA0EC1DF03F5FF08F5E0
:103FE000FF08B0BD02000000000000000000D0EF9C
:103FF00002F0FF03F0FF03F0FF03F0FF03F0FF0305
:10400000F0FF03F0FF03F0FF03F0FF03F0FF03F006
:10401000FF03F0FF03F0FF03F0FF03F0FF03F0FFE7
:1040200003F0FF03D0EF02000020C7FEDF5A0000BC
:10403000000000F8FFFFFFFF2D000000B0FFFFBDF4
:10404000FCFFFF030000F8FF190000F7FF0D002040
:10405000FF9F00000060FF6F0090FF0E0000000057
:10406000FCCF00D0FF0800000000F7FF00F0FF05C4
:1040700000000000F3FF03F2FF0300000000F1FF67
:1040800004F3FF0200000000F1FF05F2FF0300004F
:104090000000F1FF04F1FF0400000000F3FF02F054
:1040A000FF0800000000F7EF00B0FF0D0000000067
:1040B000FDAF0050FF7F00000070FF3F0000FCFFDD
:1040C000180010F9FF090000E2FFFFBDFDFFCF005F
:1040D000000020FCFFFFFFFF090000000040D9FEA8
:1040E000CE280000000000002DE9F0418EB0DFF87E
:1040F000684900F013FD00F0B9F900F03CFB684698
:1041000000F0A0F9DFF85409002120600122DFF857
:10411000500962614FF48038A06204F13006C4F89F
:104120000480A1602046216104F17C07A16184F82C
:104130002010E162E160E261317000F009FD0121CF
:10414000042201910023009269460293204600F068
:1041500027FDDFF810090021B0610122B18304F1CD
:104160004800F1623163B26300F044FEDFF8F80802
:104170000021B86304F1B400F96339647964B96467
:10418000F9643965B965F96539667966B96600F02B
:104190006DFEDFF8D8080022F06380208DF8010062
:1041A0004FF400003A80002301213861E12231649C
:1041B0008DF8003004F16C008DF8022004F51476BF
:1041C0008DF80330ADF80430C7F804D0BB60FB6055
:1041D000DFF89C7800F092FEDFF89808002130604C
:1041E000012277603046B160F26031617161B16186
:1041F000F161316201F07AF80021304601F036FBBE
:104200000021304601F047FBDFF86C080021012255
:10421000F06437657165B265F16531667166B166E6
:10422000F16604F52776304601F060F8002130464B
:1042300001F01CFB0021304601F02DFB00F094F949
:1042400000F0E9F900F04AFA04F53A700022DFF8CC
:104250002C1804F5C276016004F55B754260DFF846
:1042600020788260C2600261426182614FF040202A
:10427000306030467260B260F26032617261B26189
:10428000F26132627262B26201F03EFB00F0D9F874
:1042900000F0E2F82F60002068604FF48057A860BB
:1042A000E8602861A861284601F066FB00F0BBF8D1
:1042B000284601F0A2FB00F0C8F800F0B9F801F0C0
:1042C00064FC284602F000FA00F0BBF800F0C4F8E5
:1042D000DFF8B007286400206864A864E8642865F3
:1042E000A86504F56B75284601F046FB00F09BF8C5
:1042F000284601F082FB00F0A8F800F099F80C22A3
:1043000001F043FC284602F0DFF903A800F09AF818
:10431000684600210022002380E80E0004F57B752A
:10432000DFF86407286028466960A960E9602A61AF
:104330006961A96101F020FB039703A928460027C2
:1043400001F0BEFC002202970092694601922846C5
:1043500002F0FAFA68461C2102F068FBDFF82C072D
:1043600028646F64AF64EF642F65AF6504F22C4777
:10437000384601F042FB602100F04FFB38460292C4
:10438000049201F002FC384602F09EF9DFF80007C3
:104390000022F064002072654FF4E131B0650C2218
:1043A000F0657066B066F066306704F5E8703165F8
:1043B000326604F5827602F04BFB4FF46141002235
:1043C000DFF8D0067160B2600C21F2603261B26138
:1043D000F261326202223060304671617262C6F868
:1043E0002C8002F035FB0FF21471D1E90023CDE9E6
:1043F000002302F024FE02F061FE02A80FF2087111
:104400001422FEF70BFA002102A802F07DFEC4F888
:104410006C0402F063FE4FF0FF330722694630461A
:1044200002F056FBF7E70A970AA9284601F048BCB4
:1044300060210022039103A9049228460592079265
:1044400070470AA8102102F0F1BA00212846009115
:104450000291694602F078BA6846002100220023E2
:1044600080E80E0003A81C2102F0E0BA18B5B3B032
:10447000DFF8244627A821463022FEF7CFF901A80D
:10448000142102F0D3FA06A804F130018422FEF7C9
:10449000C5F902F0D7FEDFF80406016841F080514B
:1044A0000160006800F0805000900099DFF8F0058E
:1044B000026842F4404202600368092227A803F41C
:1044C0004043009300992792022201212D922C91C2
:1044D0004FF480012E9119224FF4C8712F92309120
:1044E0004FF480330222092128933192329102F055
:1044F000B1FE03F029F90F21022201914FF4A051DE
:104500000292002304914FF48052039306210592F6
:1045100001A803F028F8DFF88C15642206914FF407
:10452000C071079205220B9101210D9203220E9278
:104530004FF400720F91022310914FF4003111914A
:10454000002112924FF000620A9306A80893099383
:104550000C93169117911C911F91219125922691F0
:1045600003F02CF934B010BD1FB5DFF83C05DFF8BF
:104570003C1501220423016010244260182183604D
:104580004FF4A0620023C46001614FF01044426107
:104590008361C361036203F0ADFB03F0A7FE03F088
:1045A00031FF5C2004F088F801211B228DF80010F7
:1045B00003218DF8082000228DF80B1002210194B0
:1045C0006846ADF80E208DF80D208DF8011000F032
:1045D0001AF8172201218DF80820002203238DF8F4
:1045E0000010019468468DF80B308DF80F208DF87F
:1045F0000E108DF80D208DF8013000F004F8042025
:1046000004F069F81FBD8DF80A208DF809208DF897
:104610000C2004F06DB838B592B00CA818210FF238
:10462000E44402F003FA256801A800952C2102F069
:10463000FDF9DFF87C440021DFF878047F22206058
:10464000FF2361602046A2600AADE36021616161E1
:10465000A16104F083F800210122ADF8301020465A
:104660008DF83210109111910CA904F0BDF80121C0
:1046700001228DF8001020468DF8021000218DF8DF
:10468000031069468DF8012004F013F900214FF45E
:104690008070ADF8041001228DF80610029105918A
:1046A000069107910891099101218DF8281001A91F
:1046B0006860204604F05FF901204FF400718DF826
:1046C00028000122696001A9204604F054F9022261
:1046D0000021204604F054FA13B030BD00204022DF
:1046E00038B5DFF8D44300212063DFF8D053A0634E
:1046F00001232061F24862630022E0610120A26090
:10470000A261626208226064204625606160E16304
:104710006161E160A162E1622264A164E1642165FA
:104720006165A165E365216604F05EFA032304F187
:1047300084004360002105F1200201610123026031
:104740000163402481630122C1638360002381618E
:104750004162816218214463C360C36201644264A0
:104760008364C364036543658365C2650366BDE80E
:10477000324004F039BA2DE9F84F86B0684614216A
:10478000DFF8409302F052F9CF48DFF840A3046805
:1047900044F0100404600568CD4C05F01005059543
:1047A00005990268CB4D42F040020260036803F0B5
:1047B000400300F02EF942F002020260036803F0A9
:1047C000020300F026F942F008020260036803F0D9
:1047D000080300F01EF942F004020260036803F0CF
:1047E000040300F016F942F001020260036803F0CE
:1047F000010300F00EF942F400720260036803F452
:10480000007300F006F942F480720260036803F45A
:10481000807300F0FEF842F480620260036803F4E3
:10482000806300F0F6F842F020020260036803F0B3
:10483000200300F0EEF842F08002026000680122DE
:1048400000F08000059005992046202104F041FCED
:1048500000220E21284604F03CFC012208219E483B
:1048600004F037FC01224FF48051284604F031FC5B
:1048700000224FF40051484604F02BFC0022C821CE
:10488000504604F026FC082100F0C7F89348029235
:1048900004F0B8FA43F6234102220091002301926A
:1048A000032102930A220391049269468C48DFF89F
:1048B000348204F0A7FA022200234FF4004101924F
:1048C0000091012202936946039340460492864E6A
:1048D00004F098FA4FF4805100F09FF88348029258
:1048E0004FF4005704F08EFA4021002200916946EF
:1048F000019620460292DFF8F8B104F083FA2021F5
:1049000000F090F82046039304F07CFA41F20E0187
:1049100000F088F82846039304F074FA0097002109
:10492000019158460291694604F06CFA082100F0A2
:1049300079F86948039304F065FA102100F06DF8E6
:1049400020460292002404F05DFA48F2040100F0CF
:1049500064F84846029204F055FA0097012101914B
:104960000022029269460392484604F04BFA0097EF
:104970000022019669460292284604F043FA022179
:104980001022019103210092002303910A22029335
:1049900069460492484604F035FAC8220123009281
:1049A0006946019350460294039404F02BFA0521C2
:1049B00002220091032101920A2203916946029486
:1049C0005846049204F01EFA0422019400926946AB
:1049D0000294504604F016FA282203210092022382
:1049E00003910A220193694602944046049204F01E
:1049F00009FA4FF4404202230092052201936946CE
:104A0000029437480394049204F0FCF907B0BDE81F
:104A1000F08F05930599026870470022009169465E
:104A2000019270470122009100230192694602938E
:104A3000704780B504F06CFB04F076FB02F03FFB9E
:104A4000012002F078FBFBE700682A49884208BF92
:104A500004F09CBB704700001C9300200022014022
:104A60000100000F003002400000055000800240AD
:104A7000FFEAC00000540040005C0040002C0140F0
:104A800000040040000C00400004014000180040F9
:104A900000100140001401409050010840380240CD
:104AA000007000406848B10148A30020001000A039
:104AB00064A600200028004000A00020045C014003
:104AC00000EE0200001C0240303802400018024094
:104AD000000C02400020024000280240001002406A
:104AE00000040240000002400000121000240240B6
:104AF000000802400010004070470000FE00000067
:104B00000000FD000000000030750108334A000875
:104B100000000000000000000010000080B503202D
:104B200003F095FD002004F039FB01F0CDFA0020E0
:104B300002BD10B54268C36802EB6302DB0751BFD8
:104B400083681468806823581046BDE810401847F1
:104B500070B5044600250CB9012070BD04F13C0677
:104B6000706820B9204601F0CBFAB56035707268E4
:104B7000D10610D4706820F4885040F002007060B4
:104B8000204600F0ACF8B560716821F0020141F0F8
:104B90000101716000E0012500203070284670BDE1
:104BA00002460020F8B5009092F83C30012B01D16C
:104BB0000220F2BD0725012082F83C000C68136832
:104BC0008A480A2C18D30A3CDE6804EB4404A5404A
:104BD00026EA0505DD600D688C68854204D1DD6834
:104BE00045EA0465DD6017E00A3DDE6805EB450532
:104BF000AC403443DC600FE004EB44041E6905FA6A
:104C000004F426EA04041C611C690E688D6806EB36
:104C10004606B5402C431C614C681F25072C0CD25E
:104C2000641E5E6B00F055F85D635D6B4C680E882A
:104C3000671E00F049F85D631BE00D2C0CD2E41FE9
:104C40001E6B00F046F81D631D6B4C680E88E71F55
:104C500000F03AF81D630CE00D3CDE6A00F039F814
:104C6000DD62DD6A4C680E88A4F10D0700F02CF8B7
:104C7000DD625A4DAB4222D10C68594B122C03D144
:104C80001D6845F480051D600C68844218BF112C16
:104C900015D11C6844F400041C600B6883420ED1DB
:104CA000504D514C2E680A21B6FBF4F44C4300944D
:104CB00002E0009B5B1E009300980028F9D10021C0
:104CC000002082F83C10F2BD07EB8707BE40354359
:104CD000704704EB8404A54026EA0505704710B52B
:104CE0003F4A136823F440331360146841680C434F
:104CF00014600268536823F4807353605168036939
:104D000041EA03215160516821F0407151605368BC
:104D100081680B435360946824F400649460936842
:104D2000C1680B439360846A314B9C4210D09168F8
:104D300021F0706191609368816A0B43936094687D
:104D400024F0405494609368C16A0B43936007E079
:104D5000936823F070639360916821F040519160F3
:104D6000936823F0020393609168836941EA4301E9
:104D7000916090F8201071B1536843F40063536060
:104D8000516821F4604151605368416A491E43EA09
:104D90004133536003E0516821F400615160D36AEC
:104DA00023F47003D362D16AC3695B1E41EA0351E5
:104DB000D162916821F400719160936890F830108D
:104DC00043EA41239360936823F48063936091687E
:104DD000406941EA8021916010BD0000002001403F
:104DE00004230140140D002040420F001200001067
:104DF0000100000F10B504001FD0617F19B9002217
:104E0000227701F0B9F902216177207970B922681F
:104E1000154951612068836823F018038360607925
:104E200068B922684FF0FF3111610BE0E268A168B8
:104E3000204604F0EFF90028F1D0012010BD2168D0
:104E40002069086121688A68606922F06002024373
:104E50008A6021688A68A06922F0800202430020EB
:104E60008A600121617710BDB71DC10470B50400CF
:104E700001D1012070BD94F8350010B9204601F031
:104E80008EF902211C4884F8351021680A68024016
:104E90000A6023681D6866686069E26821690643E4
:104EA000A0681643A2690E43216A0643606A16434E
:104EB000A26A0E43E16A0643206B16430E43064383
:104EC00035431D606268102A0BD1207F617FA27F6D
:104ED000236840EA0120E17F40EA024040EA0160A5
:104EE000986120680122C16841F01E01C160002064
:104EF000E06484F8352070BD07F0E0FFFEB504469D
:104F0000002000900CB90120FEBD04F14405287872
:104F100020B900212046697001F0B3F9DFF8700371
:104F20004FF48056026842F480420260006800F448
:104F3000804001900199DFF85C130A6822F40002B6
:104F40000A600B68206A03430B602068815941F0B6
:104F50000101815104F084F9074620688259D10784
:104F600040F18E8004F07CF9C01B40F2F5129042B3
:104F7000F3D303200021287098E0DFF81C23DFF82A
:104F80001C3312189A4238BF46F00C0621BFDFF8D6
:104F900010733F18DFF80C2397420AD3DFF8081389
:104FA000DFF808330818984234BF46F0040646F08C
:104FB000100620684FF4004200210661204600F0F0
:104FC000BAF800284DD140F6FF76304604F04EF98D
:104FD0006068002839D004F043F9074641F2893669
:104FE00000F069F804F03CF9C01BB04258D20098B8
:104FF0004107F5D54FF480520021204600F09BF880
:1050000078BB04F02DF9074600F055F804F028F9B4
:10501000C01BB04244D200988106F5D56A461F21D4
:10502000204600F04CF8E0B90098C10647BF4FF4A5
:105030000062E2600020E0600099480759BF4FF429
:105040008041A1600022A26013E0A068E268002114
:10505000C003000C520340EA1242204600F06BF8F5
:1050600020B100F025F801202870FEBD304604F084
:10507000FDF8002100F01DF8012028700020FEBD81
:10508000066902F01CFBDFF82812DFF82822091855
:10509000914226F01C06BFF470AF46F0080688E780
:1050A00000F006F801200021287003206970FEBD81
:1050B0000121204676E06A4601212046FFE72DE9DE
:1050C000F041044604F1440630780F461546822824
:1050D00008BF02202DD08221BF013170206807F463
:1050E000F8670169228AD20202F4784201F01C01B9
:1050F00011430F4347F00107076104F0B1F8804600
:1051000001E020680769F9070CD504F0A9F8A0EBC5
:105110000800B0F5803FF4D3012000213070032057
:10512000717006E022680121506980B22860002079
:105130003170BDE8F081F8B5044604F144052878E3
:105140000E46422801D10220F2BD4221B60129704B
:10515000206892B206F4F8660169238A42612068E9
:10516000DB0203F4784301F01C0119430E4346F0BF
:105170000306066104F074F8074601E021680E6931
:10518000F0070BD504F06CF8C01BB0F5803FF5D3E9
:1051900001200021287003206970F2BD0122002047
:1051A0002A70F2BD70B5044629B14FF400604FF487
:1051B0008041E060A160E06925683F4A00282E68D0
:1051C000A168E0680CBF4FF48063002316400E43D3
:1051D0000643334343F4007301202B602D6804F031
:1051E00045F82068402105604160456800F06CF892
:1051F000216800204D608860C8608A694FF6417060
:10520000024042F080028A618D6900F05DF82068FA
:1052100000218561C161C56900F056F8216841F23D
:1052200018022648CD618B58034043F0087343F0C1
:10523000040301208B508D5804F018F82068204991
:1052400000F5805085610160056800F03DF8206838
:1052500000F580500560A169012905D1C26942F4B9
:10526000803242F04002C261606916490379427996
:1052700043EA02230B608278C478437800781204F2
:1052800042EA046242EA032202434A6070BD00001F
:10529000443802400438014040F1E9FD40787D0186
:1052A00000796CFC005A6202001F0AFA80F0FA02D0
:1052B00000D3CEFEC0E1E4000F8120FF233FDEF8E3
:1052C0008020C10240800240012003F0CFBF10B512
:1052D0004268C36802EB6302DB0751BF836814684E
:1052E000806823581046BDE81040184738B50400C0
:1052F00001D1012032BD00F065F820B9002120461F
:10530000297001F028F800F054F86068226820F055
:10531000706010612068816821F400418160E0685C
:10532000A168012820680CBF41F4004141F4044108
:105330008160E168022903D122684FF40060506067
:105340002068416841F0007141F4004141602068EB
:10535000C26822F40042C260216960692368A269C0
:10536000014341EA0221D960E169206A22680143D0
:10537000116020680021036843F0010303602020CE
:105380006960687000202163A97032BD38B50400DF
:1053900001D1012032BD04F1400500F00AF8204699
:1053A00001F02FF80020686068702063A8702870F2
:1053B00032BD2420687020680168490849000160F6
:1053C0007047044604F14005687870472DE9FE4FA8
:1053D00000F0FCF84ED10C9D002D1CBF0D9F002F3E
:1053E00003D14FF4007161603FE02078012841D083
:1053F0000121217003F034FF00F065F8002834D15A
:10540000212000F0ECF800F022F910B1002020700B
:105410002BE0718DFF25B1F5807F19D300F0CCF81A
:1054200000F045F80E9F4A463946304600F08CF9A8
:1054300000281AD100F02CF888B189B279B900F0AF
:105440003AF890B900F019F805D300F0E9F804E053
:1054500000F017F8E4E700F0EAF800F028F8708DA3
:105460000028E0D100F094F808B1012003E000F03A
:10547000C7F800E00220BDE8FE8F708DB0F5807F98
:105480007047728D4FF000733285D2B20090704732
:10549000706A326801789162736A581C7062718D0B
:1054A0004A1E7285338D591E3185708D7047414675
:1054B000304600F0C4B9CDF800903B460022802170
:1054C000304600F020B981461923CDF80090012222
:1054D0004FF40041304600F016B92DE9FE4F00F0C0
:1054E00075F852D10C9D002D1CBF0D9F002F03D1CC
:1054F0004FF40071616043E02078012845D001211C
:10550000217003F0ADFEFFF7DEFF002838D1222026
:1055100000F065F800F0B8F810B1002020702FE01E
:10552000718DFF25DFF81C01B1F5807F1BD300F0E2
:1055300043F8FFF7BCFF0E9FCDF800903B460022DA
:10554000042100F040F800281AD100F026F888B1B4
:1055500089B279B9FFF7AFFF90B9FFF78EFF05D396
:1055600000F05EF804E0FFF78CFFE2E700F05FF880
:10557000FFF79DFF708D0028DED100F009F808B11B
:10558000012003E000F03CF800E00220BDE8FE8FBF
:105590004A463946304600F0FEB83068416A726AC1
:1055A0001170318D706A431C7362491E3185728D92
:1055B000531E7385708D704735854FF08073009052
:1055C000FF2270470097304600F09DB8064606F16E
:1055D00040046078884692469B46202870474021C8
:1055E00060700020A1705B466060524675627785EE
:1055F00070630E9900914146CDF804903046704793
:10560000316820200023C8613168DFF834004A681F
:10561000024000204A6020216170A3702070704712
:105620003585002100914FF08073FF227047728D05
:1056300000214FF000733285D2B200917047000014
:1056400000E800FE0024008090F8410070472DE93A
:10565000FC4100F035F84FF08073EAB200F0EFF84B
:10566000324600F03FF860B9012D02D000F036F864
:1056700038B92068FFB243460022802100F02AF8A2
:1056800000B10120BDE8F6812DE9FC4100F018F8D9
:105690000023EAB200F0D3F8324600F023F860B9F4
:1056A000012D02D000F01AF838B92068FFB2434645
:1056B0000022402100F00EF800B10120BDE8F68183
:1056C0001746DDF82080099EDFF894211D460092E0
:1056D0000446704787622046009614E02168380A25
:1056E00032468862414620462EE0006881698A077A
:1056F00044BF002383628169CA0703D4836943F0EE
:105700000103836170472DE9F04105460E4690463E
:105710001C46069F286881693140B1420CBF0120B8
:10572000002040450DD114F1010FF3D003F098FD96
:10573000C01B844201D3002CECD100F020F80120E2
:1057400000E00020BDE8F08170B505460C46164625
:10575000286881698A0710D400F035F858B914F127
:10576000010FF5D003F07CFD801B844201D3002C97
:10577000EED100F004F8012070BD002070BD05F1ED
:10578000400020224168002341F020014160427026
:1057900083700370704770B505460C46164628683E
:1057A00081698A060DD400F00EF840B903F058FD67
:1057B000801B844201D3002CF1D1FFF7E0FF0120D0
:1057C00070BD002070BD324621462846FFE770B507
:1057D00005460C46286816468169CA061AD5286807
:1057E00081698A0618D414F1010FF8D003F038FD4E
:1057F000801B844201D3002CF1D105F140004168A7
:1058000041F0200141602022427000238370037028
:10581000012070BD002070BD1022C26129682020C7
:10582000C8612846FFF761FF29680E484A680240B0
:1058300005F140004A60416841F00401E2E770B5BB
:105840000068049C084EC1F3090146EA54564568B5
:10585000B543294341EA024119432143416070BDE8
:105860000020008000E800FEFF63FF0330B500F178
:1058700040025378202B0CD11478012C09D000F071
:105880001DF824F480541C6003681D6829431960C6
:1058900020E0022030BD30B500F140025378202BCB
:1058A0000AD11478012C07D000F008F824F47064B1
:1058B00044EA01241C600DE0022030BD01232424B1
:1058C0001370547003681D686D086D001D600368D7
:1058D0001C68704700680023016841F00101016005
:1058E000202050700020137030BD10B54268C3688E
:1058F00002EB6302DB0751BF83681468806823589A
:105900001046BDE81040184770B5040001D10120D1
:1059100070BD04F14405687820B900212046297043
:1059200000F05BFE02206870206801688908890029
:1059300001602368DFF83C001E68A26961680640C8
:10594000A0681643E2680E43216906436069164366
:10595000E2690E43216A0643606A1643A26A0E4357
:1059600001210643002016431E6000236B6069700E
:1059700070BD00000784F8FF38B5040001D1012094
:1059800032BD00F04BF818B900F044F800F053FEB7
:1059900029E00222DFF88C1080F83D20026893682D
:1059A0000B40062B18BFB3F5803F03D0136843F0BC
:1059B00001031360012180F83D1000207047016849
:1059C000DFF86000CA6842F00102CA608A680240DB
:1059D000062A18BFB2F5803F03D00A6842F00102E0
:1059E0000A60002070470220211D6870206800F0C6
:1059F000C6F901206870002032BD38B5040001D11D
:105A0000012032BD00F00AF818B900F003F800F0E8
:105A100049FEE8E7002120462970704704F13C0563
:105A2000687870470700010010B5044620680169D6
:105A30008A0715D5C368990712D56FF002020123B2
:105A400002612377806910F0030F204602D003F033
:105A500021FC03E003F01FFC00F094F80020207705
:105A6000206801694A0715D5C368590712D56FF038
:105A70000402022302612377806910F4407F2046EC
:105A800002D003F007FC03E003F005FC00F07AF815
:105A900000202077206801690A0715D5C368190717
:105AA00012D56FF00802042302612377C06910F059
:105AB000030F204602D003F0EDFB03E003F0EBFB05
:105AC00000F060F80020207720680169CA0615D52B
:105AD000C368D90612D56FF010020823026123773C
